S00B00006173702E73726563D5
S31508008000E8B80020D98100082D8200082D820008D2
S315080080102D8200082D8200082D8200082D82000876
S315080080200000000000000000000000001D8300089A
S315080080302D820008000000006B8200081D2A010836
S315080080401D2A01081D2A01081D2A01081D2A0108E2
S315080080501D2A01081D2A01081D2A01081D2A0108D2
S315080080601D2A01081D2A01081D2A01081D2A0108C2
S315080080701D2A01081D2A01081D2A01081D2A0108B2
S315080080801D2A01081D2A01081D2A01081D2A0108A2
S315080080901D2A01081D2A01081D2A01081D2A010892
S315080080A01D2A01081D2A01081D2A01081D2A010882
S315080080B01D2A01081D2A01081D2A01081D2A010872
S315080080C01D2A01081D2A01081D2A01081D2A010862
S315080080D01D2A01081D2A01081D2A01081D2A010852
S315080080E01D2A01081D2A01081D2A01081D2A010842
S315080080F01D2A01081D2A01081D2A01081D2A010832
S315080081001D2A01081D2A01081D2A01081D2A010821
S315080081101D2A01081D2A01081D2A01081D2A010811
S315080081201D2A01081D2A01081D2A01081D2A010801
S315080081301D2A01081D2A01081D2A01081D2A0108F1
S315080081401D2A01081D2A01081D2A01081D2A0108E1
S315080081501D2A01081D2A01081D2A01081D2A0108D1
S315080081601D2A01081D2A01081D2A01081D2A0108C1
S315080081701D2A01081D2A01081D2A01081D2A0108B1
S315080081801D2A01081D2A01081D2A01081D2A0108A1
S315080081901D2A01081D2A01081D2A01081D2A010891
S315080081A01D2A01081D2A01081D2A01081D2A010881
S315080081B01D2A01081D2A01081D2A01081D2A010871
S315080081C01D2A01081D2A01081D2A01081D2A010861
S315080081D01D2A01081D2A010871B609F089FD00202B
S315080081E00D490E4A914203D2086004319142FBD3ED
S315080081F00B490C4A914206D20B4B086818600431A9
S3150800820004339142F9D300F005F80AF057FCFEE76B
S31508008210704700BF7047000000100020188F01202B
S3150800822020830308FC8C030800000020EFF311816B
S31508008230EFF3108251EA02211EF0040F05D0EFF386
S31508008240098020E9024002B501E002B56846744A91
S3150800825013680CB4EFF30583724951F8232090474D
S315080082600FBC016082F311881847102080F311882B
S315080082706D49086858B1EFF309821EF0100F01D155
S3150800828022ED108A22E9F00F8261C0F81CE06748E7
S3150800829000680860A0B1C16911F07F42B2F17F4F52
S315080082A01AD18269B2E8F00F11F0100F01D1B2ECC1
S315080082B0108A82F30988002071B680F3118808476E
S315080082C0EFF309805A495FF0807220E906001838F2
S315080082D080F30988DFF840F0426A4AB1554A5FF0F0
S315080082E080738069B0E8F00F20E90E00143807E0C3
S315080082F08069B0E8F00F5FF0807220E90600183850
S3150800830080F30988464801210160BFF34F8FDFF8E3
S3150800831008F0BDEC108A7047FDFFFFFF40480021BA
S315080083200160002080F31188A0692900B0E8F00FE9
S3150800833011F0100F01D1B0EC108A80F309880847B4
S315080083403D48016881F30888022080F31488BFF34A
S315080083506F8F3A49D1F814D034490968324A61B660
S315080083601BE0022383F31488BFF36F8F2F49096834
S315080083702D4A12E0EFF3148313F0040306D02DED13
S31508008380108A022383F31488BFF36F8F43622DE9A3
S31508008390F00FC0F81CE0C0F818D0116089B1CA699E
S315080083A012F07F40B0F17F4F02D10C00150000DFBC
S315080083B0D1F818D0BDE8F00F4B6A0BB1BDEC108AA6
S315080083C01047174800210160BFF34F8F002080F344
S315080083D01188BFF34F8F30BFFBE700BF104800215D
S315080083E00160BFF34F8F002080F311880E480168A3
S315080083F08A685068DFF848E0D2F808F0002181F36F
S315080084001488BFF36F8F0AF085BB00BFA0F1530035
S31508008410002800DC7047A0F131000028FBDC70471B
S31508008420042B012008390308182B01201C2B0120D6
S31508008430C283000812830008103C0308783C03082E
S315080084406130010881F0004102E000BF83F000437B
S3150800845030B54FEA41044FEA430594EA050F08BFD1
S3150800846090EA020F1FBF54EA000C55EA020C7FEA95
S31508008470645C7FEA655C00F0E2804FEA5454D4EB12
S315080084805555B8BF6D420CDD2C4480EA020281EADC
S31508008490030382EA000083EA010180EA020281EA14
S315080084A00303362D88BF30BD11F0004F4FEA013166
S315080084B04FF4801C4CEA113102D0404261EB410175
S315080084C013F0004F4FEA03334CEA133302D05242FB
S315080084D063EB430394EA050F00F0A780A4F10104B7
S315080084E0D5F1200E0DDB02FA0EFC22FA05F28018F1
S315080084F041F1000103FA0EF2801843FA05F35941D7
S315080085000EE0A5F120050EF1200E012A03FA0EFC55
S3150800851028BF4CF0020C43FA05F3C01851EBE3717F
S3150800852001F0004507D54FF0000EDCF1000C7EEB9C
S3150800853000006EEB0101B1F5801F1BD3B1F5001FDA
S315080085400CD349085FEA30004FEA3C0C04F10104F9
S315080085504FEA445212F5800F80F09A80BCF1004F22
S3150800856008BF5FEA500C50F1000041EB045141EAA4
S31508008570050130BD5FEA4C0C404141EB0101013C6D
S3150800858028BFB1F5801FE9D291F0000F04BF01465C
S315080085900020B1FA81F308BF2033A3F10B03B3F12E
S315080085A020020CDA0C3208DD02F1140CC2F10C02BE
S315080085B001FA0CF021FA02F10CE002F11402D8BF1C
S315080085C0C2F1200C01FA02F120FA0CFCDCBF41EAE8
S315080085D00C019040E41AA2BF01EB0451294330BDB7
S315080085E06FEA04041F3C1CDA0C340EDC04F1140494
S315080085F0C4F1200220FA04F001FA02F340EA03006B
S3150800860021FA04F345EA030130BDC4F10C04C4F1B0
S31508008610200220FA02F001FA04F340EA0300294690
S3150800862030BD21FA04F0294630BD94F0000F83F4DA
S31508008630801306BF81F480110134013D4EE77FEABD
S31508008640645C18BF7FEA655C29D094EA050F08BF09
S3150800865090EA020F05D054EA000C04BF19461046EA
S3150800866030BD91EA030F1EBF0021002030BD5FEA2E
S31508008670545C05D14000494128BF41F0004130BD56
S3150800868014F580043CBF01F5801130BD01F00045AA
S3150800869045F0FE4141F470014FF0000030BD7FEA1D
S315080086A0645C1ABF194610467FEA655C1CBF0B4618
S315080086B0024650EA013406BF52EA033591EA030F2F
S315080086C041F4002130BD00BF90F0000F04BF002127
S315080086D0704730B54FF4806404F132044FF000055A
S315080086E04FF0000150E700BF90F0000F04BF0021D3
S315080086F0704730B54FF4806404F1320410F0004539
S3150800870048BF40424FF000013EE700BF42004FEA33
S31508008710E2014FEA31014FEA02701FBF12F07F43B0
S3150800872093F07F4F81F06051704732F07F4208BF67
S31508008730704793F07F4F04BF41F40021704730B56E
S315080087404FF4607401F0004521F000411CE700BFBA
S3150800875050EA010208BF704730B54FF000050AE03D
S3150800876050EA010208BF704730B511F0004502D53E
S31508008770404261EB41014FF4806404F132045FEA40
S31508008780915C3FF4D8AE4FF003025FEADC0C18BFE9
S3150800879003325FEADC0C18BF033202EBDC02C2F1DB
S315080087A0200300FA03FC20FA02F001FA03FE40EA6D
S315080087B00E0021FA02F11444BDE600BF70B54FF071
S315080087C0FF0C4CF4E06C1CEA11541DBF1CEA13554F
S315080087D094EA0C0F95EA0C0F00F0DEF82C4481EAB7
S315080087E0030621EA4C5123EA4C5350EA013518BFD7
S315080087F052EA033541F4801143F4801338D0A0FBC4
S3150800880002CE4FF00005E1FB02E506F00042E0FB70
S3150800881003E54FF00006E1FB03569CF0000F18BF76
S315080088204EF0010EA4F1FF04B6F5007F64F540741E
S3150800883004D25FEA4E0E6D4146EB060642EAC621B1
S3150800884041EA55514FEAC52040EA5E504FEACE2E1E
S31508008850B4F1FD0C88BFBCF5E06F1ED8BEF1004F21
S3150800886008BF5FEA500E50F1000041EB045170BD9D
S3150800887006F0004646EA010140EA020081EA0301E1
S31508008880B4EB5C04C2BFD4EB0C0541EA045170BDDD
S3150800889041F480114FF0000E013C00F3AB8014F157
S315080088A0360FDEBF002001F0004170BDC4F10004A0
S315080088B0203C35DA0C341BDC04F11404C4F1200521
S315080088C000FA05F320FA04F001FA05F240EA02007C
S315080088D001F0004221F0004110EBD37021FA04F6B2
S315080088E042EB06015EEA430E08BF20EAD37070BD6C
S315080088F0C4F10C04C4F1200500FA04F320FA05F0CB
S3150800890001FA04F240EA020001F0004110EBD370CC
S3150800891041F100015EEA430E08BF20EAD37070BD3C
S31508008920C4F1200500FA05F24EEA020E20FA04F315
S3150800893001FA05F243EA020321FA04F001F00041C4
S3150800894021FA04F220EA020000EBD3705EEA430E35
S3150800895008BF20EAD37070BD94F0000F0FD101F064
S315080089600046400041EB010111F4801F08BF013C9D
S31508008970F7D041EA060195F0000F18BF704703F0DB
S315080089800046520043EB030313F4801F08BF013D62
S31508008990F7D043EA0603704794EA0C0F0CEA13551E
S315080089A018BF95EA0C0F0CD050EA410618BF52EAD8
S315080089B04306D1D181EA030101F000414FF00000DE
S315080089C070BD50EA410606BF1046194652EA4306EC
S315080089D019D094EA0C0F02D150EA013613D195EA60
S315080089E00C0F05D152EA03361CBF104619460AD1A8
S315080089F081EA030101F0004141F0FE4141F47001B2
S31508008A004FF0000070BD41F0FE4141F4780170BDA1
S31508008A1070B54FF0FF0C4CF4E06C1CEA11541DBF06
S31508008A201CEA135594EA0C0F95EA0C0F00F0A7F808
S31508008A30A4EB050481EA030E52EA03354FEA013135
S31508008A4000F088804FEA03334FF0805545EA131348
S31508008A5043EA12634FEA022245EA111545EA106510
S31508008A604FEA00260EF000419D4208BF964244F1A7
S31508008A70FD0404F5407402D25B084FEA3202B61AC6
S31508008A8065EB03055B084FEA32024FF480104FF49A
S31508008A90002CB6EB020E75EB030E22BFB61A75460E
S31508008AA040EA0C005B084FEA3202B6EB020E75EBA1
S31508008AB0030E22BFB61A754640EA5C005B084FEA09
S31508008AC03202B6EB020E75EB030E22BFB61A7546D6
S31508008AD040EA9C005B084FEA3202B6EB020E75EBE1
S31508008AE0030E22BFB61A754640EADC0055EA060EA2
S31508008AF018D04FEA051545EA16754FEA06164FEAE5
S31508008B00C30343EA52734FEAC2025FEA1C1CC0D190
S31508008B1011F4801F0BD141EA00014FF000004FF01D
S31508008B20004CB6E711F4801F04BF01430020B4F1DE
S31508008B30FD0C88BFBCF5E06F3FF6AFAEB5EB030C96
S31508008B4004BFB6EB020C5FEA500C50F1000041EB93
S31508008B50045170BD0EF0004E4EEA113114EB5C0460
S31508008B60C2BFD4EB0C0541EA045170BD41F4801133
S31508008B704FF0000E013C90E645EA060E8DE60CEA3B
S31508008B80135594EA0C0F08BF95EA0C0F3FF43BAF58
S31508008B9094EA0C0F0AD150EA01347FF434AF95EA0F
S31508008BA00C0F7FF425AF104619462CE795EA0C0FF3
S31508008BB006D152EA03353FF4FDAE1046194622E7C0
S31508008BC050EA410618BF52EA43067FF4C5AE50EA9A
S31508008BD041047FF40DAF52EA43057FF4EBAE12E78A
S31508008BE04A0011D212F5001211D20DD56FF478731E
S31508008BF0B3EB62520ED44FEAC12343F0004343EA73
S31508008C00505323FA02F070474FF00000704750EABD
S31508008C10013002D14FF0FF3070474FF00000704727
S31508008C204FEA4102B2F1E04324BFB3F5001CDCF180
S31508008C30FE5C0DD901F0004C4FEAC0024CEA5070B8
S31508008C40B2F1004F40EB830008BF20F001007047E7
S31508008C5011F0804F21D113F13872BCBF01F00040EA
S31508008C60704741F480114FEA5252C2F11802C2F11C
S31508008C70200C10FA0CF320FA02F018BF40F001009D
S31508008C804FEAC1234FEAD32303FA0CFC40EA0C004F
S31508008C9023FA02F34FEA4303CCE77FEA625307D18C
S31508008CA050EA01331EBF4FF0FE4040F440007047C3
S31508008CB001F0004040F0FE4040F40000704700BF5D
S31508008CC07BB972B90029BEBF00204FF0004106E00B
S31508008CD008BF00281CBF6FF000414FF0FF3001F0BD
S31508008CE011B9ADF1080C6DE904CE002909DB002B9A
S31508008CF01ADB00F035F8DDF804E0DDE9022304B0FC
S31508008D007047404261EB4101002B1BDB00F028F85D
S31508008D10DDF804E0DDE9022304B0404261EB4101DD
S31508008D20524263EB43037047524263EB430300F03E
S31508008D3017F8DDF804E0DDE9022304B0404261EBF0
S31508008D4041017047524263EB430300F009F8DDF82E
S31508008D5004E0DDE9022304B0524263EB43037047A3
S31508008D602DE9F047089D04468E46002B4DD18A42D0
S31508008D70944669D9B2FA82F252B101FA02F3C2F103
S31508008D80200120FA01F10CFA02FC41EA030E944094
S31508008D904FEA1C48210CBEFBF8F61FFA8CF708FBB5
S31508008DA016E341EA034306FB07F199420AD91CEB8D
S31508008DB0030306F1FF3080F01F81994240F21C81BF
S31508008DC0023E63445B1AA4B2B3FBF8F008FB103307
S31508008DD044EA034400FB07F7A7420AD91CEB04043C
S31508008DE000F1FF3380F00A81A74240F2078164440C
S31508008DF0023840EA0640E41B00261DB1D440002391
S31508008E00C5E900433146BDE8F0878B4209D9002DF4
S31508008E1000F0EF800026C5E9000130463146BDE87E
S31508008E20F087B3FA83F6002E4AD18B4202D38242E8
S31508008E3000F2F980841A61EB030301209E46002D97
S31508008E40E0D0C5E9004EDDE702B9FFDEB2FA82F2EC
S31508008E50002A40F09280A1EB0C014FEA1C471FFA4A
S31508008E608CFE0126200CB1FBF7F307FB131140EA31
S31508008E7001410EFB03F0884208D91CEB010103F1FE
S31508008E80FF3802D2884200F2CB804346091AA4B2C0
S31508008E90B1FBF7F007FB101144EA01440EFB00FE94
S31508008EA0A64508D91CEB040400F1FF3102D2A645F9
S31508008EB000F2BB800846A4EB0E0440EA03409CE798
S31508008EC0C6F12007B34022FA07FC4CEA030C20FA45
S31508008ED007F401FA06F31C43F9404FEA1C4900FA65
S31508008EE006F3B1FBF9F8200C1FFA8CFE09FB1811E2
S31508008EF040EA014108FB0EF0884202FA06F20BD955
S31508008F001CEB010108F1FF3A80F08880884240F2A4
S31508008F108580A8F102086144091AA4B2B1FBF9F0E8
S31508008F2009FB101144EA014100FB0EFE8E4508D9E3
S31508008F301CEB010100F1FF346CD28E456AD9023868
S31508008F40614440EA0840A0FB0294A1EB0E01A1424D
S31508008F50C846A64656D353D05DB1B3EB080261EBBB
S31508008F600E0101FA07F722FA06F3F1401F43C5E995
S31508008F70007100263146BDE8F087C2F12003D840CB
S31508008F800CFA02FC21FA03F3914001434FEA1C470D
S31508008F901FFA8CFEB3FBF7F007FB10360B0C43EAFF
S31508008FA0064300FB0EF69E4204FA02F408D91CEBAF
S31508008FB0030300F1FF382FD29E422DD902386344AD
S31508008FC09B1B89B2B3FBF7F607FB163341EA03414D
S31508008FD006FB0EF38B4208D91CEB010106F1FF389C
S31508008FE016D28B4214D9023E6144C91A46EA004693
S31508008FF038E72E46284605E70646E3E61846F8E625
S315080090004B45A9D2B9EB020864EB0C0E0138A3E76D
S315080090104646EAE7204694E74046D1E7D0467BE74E
S31508009020023B614432E7304609E76444023842E7C6
S3150800903003685A004CBF43F0004323F0004318442A
S31508009040704700BF2DE9F84329B34F1E044615465D
S315080090503E464FF0000808EB060101EBD1714910B6
S3150800906004EBC1094846FFF7E3FF0346C80008308A
S315080090708F42204409D0AB4209D8FFF7D9FF0138FF
S31508009080A8420AD201F10108E5E7AB4205D98845AD
S3150800909001D04E1EDFE74FF000094846BDE8F883C9
S315080090A0012807D0022807D0044B00280CBF184611
S315080090B000207047024870470248704779970008B1
S315080090C07D9700088197000830B5234B83B0044686
S315080090D08D1E3BB301A92846AFF30080E8B101997C
S315080090E02A46FFF7AFFF0146B8B1FFF7A1FF4B6865
S315080090F0A064012B2CD0002B01F1040024DBFFF720
S3150800910097FF0023C4E913030368002B11DBFFF75D
S315080091108FFF2061002003B030BD002309202361A2
S3150800912003B030BD0D4B0E49C91AC9101846019136
S31508009130D6E7C3F30360FFF7B3FF0028206114BF27
S315080091400020092003B030BD0123C4E91303DBE77F
S31508009150002323610520DEE70000000008810308DC
S31508009160208303080368DA0710B5044606D49B076C
S3150800917000F1480009D500F05BFC2368590709D5BA
S315080091801A070ED5DB0613D510BD00F049FC236877
S315080091905907F5D404F1D00000F052FC23681A07E9
S315080091A0F0D404F5A87000F053FC2368DB06EBD472
S315080091B004F5E870BDE8104000F08EBC0920704741
S315080091C00346006800B11844704700BF704700BFE7
S315080091D070B504460E46316C2046FFF775FF054606
S315080091E088B9326C62612369324621460120984764
S315080091F00828F0D0072806D12846316CFFF7E6FF85
S31508009200301D00F001FC23F099FA00BF2DE9F04764
S315080092100D1DD0F80C80D0F81890074614460FCDCF
S31508009220ADF5727D0DF10C0CACE80F000FCDACE876
S315080092300F000FCDACE80F0095E80F0002AE4FF017
S31508009240000E8CE80F00C6F800E020E0336C7B6166
S315080092504FF4F07231467AA806F0BAFE3B697AAA4C
S31508009260394650469847889B73642146CDE900697C
S3150800927005463B463A460120C0470446E0B94FF446
S31508009280F0727AA9304606F0A3FE082D1AD1316C81
S315080092903846FFF719FF09345FFA84FA05460028AD
S315080092A0D4D0B36B73643A46CDE900693B464AF0BD
S315080092B010010120C04700B1092528460DF5727D29
S315080092C0BDE8F087072DF7D12046316CFFF77EFF02
S315080092D003A800F099FB00BF406C7047F0B5CB6B54
S315080092E00B6401F1040C0E460546BCE80F00F9B004
S315080092F001AC0FC4BCE80F000FC4BCE80F000FC4D4
S315080093009CE80F004FF0FF3784E80F00009706E04F
S315080093102B696A46294698470828044608D11099B1
S315080093202846FFF7D1FE0028F2D0092079B0F0BD13
S315080093306846FFF717FF062CF7D131462846FFF790
S3150800934047FF00BFC160D96B8261196400221946C4
S315080093505CE700BF70B5C66843690B64AEB90369BC
S315080093600A4604460D46014602209847072805D0B6
S3150800937008280FD129462046FFF72AFF3046296CD0
S31508009380FFF724FF281D00F03FFB0122FFF73EFFF1
S3150800939023F0D4F923F0D2F9C2681AB1CA6B0A6469
S315080093A0002233E79AE700BF704700BF836801468B
S315080093B00BB1012018477047012912D009D873B993
S315080093C00F2A0CD800EB820218465368009A1360DD
S315080093D070470339012994BF0120022070470220F3
S315080093E070470846704700BF00B585B00A46002397
S315080093F003A900911946FFF7DFFF039805B05DF84A
S3150800940004FB00BF012912D009D873B90F2A0CD85A
S3150800941000EB8200009A12684260184670470339CA
S31508009420012994BF01200220704702207047084690
S31508009430704700BF10B584B0002303AC03920094B4
S315080094400A461946FFF7DEFF04B010BD70B5D36BA8
S31508009450136402F1040C05460C46BCE80F00ADF592
S315080094600E7D0DF15C0EAEE80F00BCE80F00AEE80D
S315080094700F00BCE80F00AEE80F009CE80F004FF0A5
S31508009480FF368EE80F00169610E0FFF7D3FF214649
S3150800949016A8A847034616AA6946082083B9049B56
S315080094A09847052806460CD0092809D02699684603
S315080094B0FFF70AFE03466A460C2116A8002BE4D0DD
S315080094C0092616A8FFF74EFE30460DF50E7D70BD2F
S315080094D02DE9F04FCC6C89B01E4654F8043B06942F
S315080094E00D46174600F00308002E79D01A0C1B0407
S315080094F005938DF81D200223D2B204EB82048DF861
S315080095001C302B6DB8F1020F08BFAC6B13F00103CA
S315080095100CD005A9384600F079FB18B9082009B01F
S31508009520BDE8F08F092009B0BDE8F08FD4F800A097
S31508009530BAF1000FEDD0019300F008030293022E52
S315080095404AD0B4F800A0B4F802900434AB6C29F001
S31508009550010B0F2138469B44FFF746FF834539D850
S315080095602AF001039B44834594BF002001204FEA5B
S31508009570490303F002030AF0010A43EA0A03012B2E
S3150800958049D0022B32D0002BCCD1B8F1000F02D033
S31508009590002840F0CD800434D4F800A0BAF1000FBA
S315080095A0CDD105A9384600F031FB0028BAD1019B78
S315080095B0002BB3D00F213846FFF716FF0E210246BF
S315080095C03846FFF737FF38466A4A0F21FFF732FF5A
S315080095D00720A8E70020CAE7D4F804900834B5E7BE
S315080095E01B0205930323ADF81C308AE7236823F092
S315080095F0004BB8F1000F45D128B1029A002A5CD079
S31508009600BBF1000F74D0002B00DA04340BF1010B08
S3150800961004EB8B04C0E7B8F1000F19D1B0B1636849
S315080096202268991C4FEAD2723FF47CAF05F15801C3
S315080096300133049100F09080201DFFF7C1FD04ABB3
S315080096400146284620F028FF00285BD10834A3E706
S315080096500D213846D5F82090FFF7C6FE8145F5D18D
S31508009660AB6A9C42F2D12046FFF7E2FC0F21024684
S315080096703846FFF7DFFE38462A460021FFF7DAFEAE
S31508009680072050E70D213846D5F82090FFF7ACFEA5
S31508009690814501D02368B6E7AB6A9C42FAD1042318
S315080096A00022C5E90B23E318C5F828B06B632368C5
S315080096B0002B59DB01230193A8E705F15803CDF8E0
S315080096C00C8004F1040AB04691461E460EE0504648
S315080096D00496FFF775FD0022014604AB284609F1FA
S315080096E001090AF1040A20F0D7FEE0B9D945EED1FE
S315080096F00D213846FFF778FE049BAC62C5E90803DE
S31508009700062010E781460D213846FFF76DFEB9F1B0
S31508009710020F286225D12B46049A43F82C2F6B6238
S31508009720AC620620FFE646462368DDF80C806AE749
S315080097302046FFF77DFC04340246AC6328461446EF
S3150800974020F004FF00283FF4EDAE384622460F21EC
S31508009750FFF770FE0720E6E60D213846FFF744FEC0
S315080097602862049B6B62DBE70BF1010004EB8000C7
S315080097707AE700BF95B202080023A9E60123A7E607
S315080097800223A5E62DE9F0430646C3B015461C4656
S31508009790042900F2BF80DFE801F09E57BD2D0300C3
S315080097A0002C40F0B780102A00F2B4800368D8066F
S315080097B000F1F98020AF384600F098F9B46B3946C5
S315080097C000234FF0010C0CFA03F22A42204603F15B
S315080097D0010303D050F8042B0A600446042B01F158
S315080097E00401F0D13846B46300F076F9002043B09E
S315080097F0BDE8F083032C40F08D8094B204EB12434D
S31508009800102B4FEA124500F2858003681F0700F106
S31508009810D28020AF384600F03DF9B26B07EBC501A0
S3150800982054B10B46D01A01EBC401E4001D5843F8A5
S31508009830045B8B42FAD122443846B26300F008F939
S31508009840002043B0BDE8F083012C4FEA124895B2D8
S315080098505CD0052C5ED108EB0509B9F1200F59D863
S31508009860B8F10F0F79D9A946002D40F08A80B36B5D
S315080098706DB320AF4FF0000907EBC807043F03EBB1
S31508009880C50553F8041B47F8041FAB42F9D1B9F1D3
S31508009890000F0FD06F464146102938BF102107EB3D
S315080098A0C101843903EBC90553F8040B41F8040FC9
S315080098B0AB42F9D1012C00F08680B8F10F0FB563E1
S315080098C047D9B9F1000F02D0684600F0B9F8002070
S315080098D043B0BDE8F083ECB9806B23461FFA82FCDF
S315080098E00124371D04FA03F212EA0C0F014604D0CC
S315080098F051F8042B47F8232008460133102BF1D1E1
S3150800990015F40055E3D1B063284604E008EB0503D7
S31508009910102B03D9022043B0BDE8F083B8F10F0F2E
S31508009920F8D83368DA0706D5304623F0030340F83B
S31508009930483B00F079F820AF384600F075F8B36B6D
S31508009940002D97D11D460435B563384600F068F8F2
S31508009950BDE720A800F06CF8B3E7B9F1100F40D9BD
S31508009960A9F110093368D90708D523F00103304651
S3150800997043F0020340F8483B00F05EF8B9F1000FE7
S3150800998032D033685A0720D4B8F10F0F25D96F465D
S315080099903846C8F1100500F057F8002DB36B7FF76D
S315080099A07AAF20AF68E723F01003336006F5E87056
S315080099B000F09CF8FEE623F00803036000F5A870A3
S315080099C000F068F825E720AFBDE7304623F004032A
S315080099D040F8D03B00F038F8D6E720A800F02CF87D
S315080099E0D5E74FF00009BDE7B8F10F0F3FF63FAFD7
S315080099F020AF384600F020F8B36B002D7FF43AAF5D
S31508009A00384600F015F862E700F1340191E83800AD
S31508009A109C46A6464CF8045D90E8FF0FE54600BD57
S31508009A2090EC210B704700BF80EC210B704700BFFC
S31508009A3090EC200B704700BF80EC200B704700BFEE
S31508009A40D0EC200B704700BFC0EC200B704700BF5E
S31508009A50F0EC0201F0EC0211F0EC0221F0EC02311C
S31508009A60F0EC0241F0EC0251F0EC0261F0EC02710C
S31508009A70F0EC0281F0EC0291F0EC02A1F0EC02B1FC
S31508009A80F0EC02C1F0EC02D1F0EC02E1F0EC02F1EC
S31508009A90704700BFE0EC0201E0EC0211E0EC0221A5
S31508009AA0E0EC0231E0EC0241E0EC0251E0EC02614C
S31508009AB0E0EC0271E0EC0281E0EC0291E0EC02A13C
S31508009AC0E0EC02B1E0EC02C1E0EC02D1E0EC02E12C
S31508009AD0E0EC02F1704700BFB0FC0181B0FC0191D7
S31508009AE0B0FC01A1B0FC01B1704700BFA0FC018128
S31508009AF0A0FC0191A0FC01A1A0FC01B1704700BF28
S31508009B00EC4600B52DE900502DE9FF1F4FF0000384
S31508009B102DE90C0001A9FFF7E1FBDDF840E012B0E2
S31508009B20704700BFEC4600B52DE900502DE9FF1F30
S31508009B304FF000032DE90C0001A9FFF70BFCDDF837
S31508009B4040E012B0704700BFEC4600B52DE9005062
S31508009B502DE9FF1F4FF000032DE90C0001A9FFF7BF
S31508009B601BFCDDF840E012B0704700BFEC4600B5BC
S31508009B702DE900502DE9FF1F4FF000032DE90C00D9
S31508009B8001ABFFF7DFFBDDF840E012B0704700BF1E
S31508009B90EC4600B52DE900502DE9FF1F4FF00003F4
S31508009BA02DE90C0001AAFFF751FCDDF840E012B0E0
S31508009BB0704700BF027A03467AB9427AA2B1416871
S31508009BC0013A10B44272086803220C1D1A72020286
S31508009BD05C60000E10BC1A6070470068013A1A7281
S31508009BE002021A60000E7047B020704700B585B0B3
S31508009BF0002303AA009219460C22FFF7DDFB0398FF
S31508009C0005B05DF804FB00BFF0E700BF2DE9F0439F
S31508009C10054685B00E464FF000083046FFF7CAFFE6
S31508009C20B028044600F0BA80070620D500F0F003F5
S31508009C30802B4DD0902B36D0A02B60D0B02B74D073
S31508009C40C02B00F08B8000F0F803D02B0BD100F06E
S31508009C5007020132052342F4002201212846FFF7B4
S31508009C6091FD0028D9D0092005B0BDE8F08383000E
S31508009C70DBB21F1D0DF10C0900231946CDF8009023
S31508009C800D222846FFF798FB039BCDF80090600647
S31508009C904CBFDF1BFF1800230D22194628460397E1
S31508009CA0FFF7B0FBB9E700F00D030D2BDBD003AFD0
S31508009CB0002300F00F02194600972846FFF77CFBA1
S31508009CC0002300970D2219462846FFF79BFBA4E7B9
S31508009CD03046FFF76FFF24022043B0F5004FC2D08D
S31508009CE004010023A2B219462846FFF74BFD0028B7
S31508009CF0B9D114F4004F18BF4FF001088DE7C243DD
S31508009D0002F007034FF47F621A41010702F47F62EB
S31508009D104FF0000348BF42F4804219462846FFF731
S31508009D2031FD00283FF479AF9DE7B1283BD0B22832
S31508009D3000F09380B32841D000F0FC03B42B92D0F6
S31508009D4000F007020132012342F400221946284690
S31508009D50FFF718FD00283FF460AF84E7C6284AD00D
S31508009D60C72854D000F0F803C02B63D0C82868D0A1
S31508009D70C9287FF478AF3046FFF71CFF020300F0CE
S31508009D800F0002F470220130024301210523284600
S31508009D90FFF7F8FC00283FF440AF64E7B8F1000F7E
S31508009DA018D0002060E73046FFF704FF0246002877
S31508009DB03FF459AF10F0F003C8D054E73046FFF728
S31508009DC0F9FE020300F00F03013302F470221A436E
S31508009DD00123BBE703AC43460E22414600942846BE
S31508009DE0FFF7EAFA009443460F2241462846FFF752
S31508009DF009FB404638E73046FFF7DCFE020300F071
S31508009E000F03013302F470221A4303239EE73046F8
S31508009E10FFF7D0FE024600283FF425AF10F0F00306
S31508009E207FF421AF04212846FFF7ACFC00283FF455
S31508009E30F4AE18E700F00F020132032342F42022A1
S31508009E4084E73046FFF7B6FE00F0F00200F00F0395
S31508009E501032013343EA023297E700230DF10C0969
S31508009E600D221946CDF800902846FFF7A5FA304688
S31508009E70FFF7A0FE02064FF002040CD5039B00F084
S31508009E807F00A040184403903046FFF793FE030670
S31508009E9004F10704F2D4039BCDF8009000F07F028A
S31508009EA0A24003F501731A440023039219460D22B2
S31508009EB02846FFF7A7FAB0E610B5C26C536884B017
S31508009EC04FF0030C08321C0208461B0E01A9019428
S31508009ED002928DF80CC08DF80D30FFF797FE04B08E
S31508009EE010BD00BF08B5FFF78FFE806C08BD00BF28
S31508009EF008B5FFF789FEC06CC379023300EB83000F
S31508009F0008BD00BF704700BF70B54C1E4F2C41D826
S31508009F10DFE804F028282828404040403E3E283EF6
S31508009F203E3E3E3E3E3E3E3E3E3E3E402A2A2A2A91
S31508009F302A2A2A2A283E3E3E3E3E403E2A292840D4
S31508009F40282A2A3E2940403E3E3E28282828283EE0
S31508009F5028283E2840403E3E3E4040403E3E3E2861
S31508009F602A282A2AB2B1ABB1D0E90545AC4211DAA2
S31508009F70056904EB840E05EB8E0C01340026CCE94A
S31508009F800166446105F82E106046CCE9032370BDCE
S31508009F90002AE9D14FF0000C604670BDF0B5C268E2
S31508009FA011786E29864625D03039CBB2092B2BD8A5
S31508009FB00026164D00206FF0004402E0B0EBD30FE8
S31508009FC015DC0132CEF80C201378303B5FFA83FC9F
S31508009FD000EB800001EB4000BCF1090F1946A4EB29
S31508009FE00303A5FB0373E9D906B14042F0BD4FF060
S31508009FF0FF30F0BD531CC36051783039CAB2092A04
S3150800A00002D81A460126D4E70020F0BDCDCCCCCC28
S3150800A01010B5044629B9C3681A786AB15A1CC260D1
S3150800A020197868290CD0762906D12046FFF7B6FF9D
S3150800A030E3681A785F2A01D0002010BD0133E36077
S3150800A0402046FFF7ABFFE3681A785F2AF4D101339D
S3150800A050E360012010BD00BF10B4C3680A46197832
S3150800A06052290FD04F2903D010465DF8044B70478C
S3150800A070C46A03342021C4620133C3605DF8044B0B
S3150800A080002341E7C46A02341F21C462F4E700BF13
S3150800A090002965D070B506460C46A368012B38DC46
S3150800A0A0D6F81C51B5F5806F03F1010331DC22782F
S3150800A0B0A360531E4F2B2CD8DFE803F03030304B0B
S3150800A0C02B2B2C2C30303030303030303030303094
S3150800A0D03030302B30303030303030303030414155
S3150800A0E030302B303030302830303030302B2C3078
S3150800A0F03030303030303030303030302B2B302864
S3150800A1002828282B3030303030303030E468002CA6
S3150800A110C3D170BD2469002CBFD1FAE7E1680135C7
S3150800A1203046C6F81C51FFF7B3FF21693046FFF7E2
S3150800A130AFFFD6F81C31013BC6F81C3170BDE1688B
S3150800A1400B78052BEBD1D6F838310133C6F8383100
S3150800A150E5E7D6F84431E1680133C6F84431DEE76D
S3150800A160704700BFC3681A785F2A01D0012070477C
S3150800A17010B55A1CC2605A785F2A044604D0FFF705
S3150800A1800DFFC043C00F10BD0233C360FFF706FFC3
S3150800A190002809DB092805DDE3681A785F2A03D158
S3150800A1A00133E360012010BD002010BD28B909E085
S3150800A1B0002908DD0069013940B103782F2BF7D053
S3150800A1C0002070477047FBD1C0687047704700BFD2
S3150800A1D0F0B514465268A5684B1C1344AB4283B0CD
S3150800A1E00E46074611D8E5686DB963682068324699
S3150800A1F01844394605F0ECFED4E9003233449D5440
S3150800A20063683344636003B0F0BDE268002AFAD19C
S3150800A21055B16D00AB42FCD82068294622F072FF82
S3150800A22038B12060A560DEE7022B4FF00205F0D8B2
S3150800A230F2E70190206822F0B9FD019B0122C4E9EA
S3150800A2400033C4E90232DEE70378722B07D0562BB7
S3150800A25005D04B2B03D0442B03D000207047012098
S3150800A2607047407800F0DF034F2BF8D07738012885
S3150800A2708CBF002001207047D0F80031FF2B70B545
S3150800A28004460D4606D05A1CC4F80021E55484F845
S3150800A290045170BD0026194680F8FF60D0E94232A5
S3150800A2A09847D4F8283101221344C4F82831334694
S3150800A2B0C4F80021E55484F8045170BD0346D0F86B
S3150800A2C0100190B1CB684268002B10690BDB20B9EE
S3150800A2D009E03BB10069013B30B102782F2AF8D07A
S3150800A2E000207047C068704770470122C3F81821DC
S3150800A2F0704700BF002942D038B505460C4623787A
S3150800A3004C2B32D8DFE803F02F31313131272F3784
S3150800A3103731313131313131313131313131313119
S3150800A3202F31313131313131313131313131312F13
S3150800A330313131312F31313131312F3731313131FD
S3150800A3403131313131313131312F2F3131312F2FF7
S3150800A3502F31312F2F0021462846FFF7AFFF10B1C6
S3150800A36003782F2B00D0002038BDE1682846FFF778
S3150800A370C1FF0028F8D12469002CC0D1F3E70020DA
S3150800A380704700BF2DE9F041044608460D4606F021
S3150800A39037F840B3013DD4F800112F184FF00008E4
S3150800A3A009E00B46BD4201F10101C4F80011E6546B
S3150800A3B084F8046117D0FF2915F8016FF1D1D4E9A3
S3150800A3C0423284F8FF8020469847D4F82831012184
S3150800A3D00B44C4F828310023BD42C4F80011E654E2
S3150800A3E084F80461E7D1BDE8F08100BF38B5C368D9
S3150800A3F01A78542A24D15A1CC2605A785F2A04460D
S3150800A40020D06E2A1CD0FFF7C9FD421C18D4E36879
S3150800A41019785F2914D10133E360D4E905318B42F9
S3150800A4200EDA216903EB830C01EB8C00013300255E
S3150800A430C0E901556361052301F82C30C26038BDB7
S3150800A440002038BD0233C3600022E6E72DE9F0415B
S3150800A45088B00A4604461A4901A822F0A5FE01A8B2
S3150800A46005F0CEFF40B301ADD4F800112F184FF018
S3150800A470000809E00B46AF4201F10101C4F80011DA
S3150800A480E65484F8046117D0FF2915F8016BF1D159
S3150800A490D4E9423284F8FF8020469847D4F8283118
S3150800A4A001210B44C4F828310023AF42C4F8001137
S3150800A4B0E65484F80461E7D108B0BDE8F08100BF2E
S3150800A4C03873030870B50446FFF768FD051E46DDB8
S3150800A4D0E66863689B1B9D423EDCA26873195207B7
S3150800A4E0E36004D5725D242A04BF0133E360092DB5
S3150800A4F022DD2A490822304622F060FC30B9337A38
S3150800A5002E2B2ED05F2B2CD0242B2AD0D4E9053223
S3150800A510934221DA206903EB830200EB82000133C0
S3150800A5200022C0E90122636100230370C0E90133F8
S3150800A530C0E90365A06270BDD4E9053293420BDA1F
S3150800A540206903EB830200EB820001330022C0E995
S3150800A55001226361002EE7D10020A06270BD0020B1
S3150800A56070BD737A4E2BD1D1E26A6369A16916323E
S3150800A570551B8B42E562EFDA226903EB8300810003
S3150800A5800133636102EB80000023C0E901335354B1
S3150800A590034A1523C0E90323DFE700BF3C7303081A
S3150800A5A0487303082DE9F041C3681A78532A31D154
S3150800A5B05A1CC2605A780446A2B39A1CC2605A78DA
S3150800A5C05F2A44D0A2F13003D8B2092826D8002140
S3150800A5D00DE0303B99421DD8E06802781946451CC3
S3150800A5E01AB1E56002785F2A3BD0A2F13003D8B2EF
S3150800A5F0092801EBC103A2F1410C02EB8303E8D958
S3150800A600BCF1190F06D801EBC10302EB8303373BF4
S3150800A6109942E1D900252846BDE8F081A2F141001A
S3150800A6201928D4D9A36803F00803002B14BF012501
S3150800A630002500D1B9B93F4B742103F1A80001E008
S3150800A64013F81C1F914215D08342F9D1E2E7002383
S3150800A650226A9A42DED9E26952F823502846BDE8B2
S3150800A660F0810133F4E7E3681B78433B012B98BF7D
S3150800A6700D46E0E75E69002E54D0D4E905208242F3
S3150800A680D3F8188053DA276902EB820C07EB8C01A2
S3150800A6904FF0000EC1E901EE01324FF0180E62616B
S3150800A6A007F82CE0C1E90368A162002D37D0D3E989
S3150800A6B00371E36A90420B44E36236DD236902EBD9
S3150800A6C0820003EB800501320026C5E90166626156
S3150800A6D0182203F82020C5E90371E3681A78422A8C
S3150800A6E099D1A66A0133E3602046FFF7EBFE2A46B6
S3150800A6F003464C212046FFF707FCE3681A78422AEE
S3150800A7000546EFD0A662002884D0D4E908329342E1
S3150800A71080DAE1695A1C41F8230022627BE7D3E913
S3150800A7200171C6E7D4E90520BFE70025D5E7002172
S3150800A730BAE700BF042C03082DE9F8438F18B9427D
S3150800A7404AD20C4605464FF000080CE0D5F8001131
S3150800A750FF2933D04B1CC5F800316E5485F80461C7
S3150800A7600134A74238D93B1B032B2678EEDD5F2E32
S3150800A770ECD163785F2BE9D1A378552BE6D1E21C9F
S3150800A7809742E3D9002105E0A6F13703BA4203EB65
S3150800A790011123D0914612F8016BA6F13003D8B205
S3150800A7A00928A6F1410CF1D9BCF1050FA6F1610300
S3150800A7B0EAD9052B14D8A6F15703E7E7D5E94232BB
S3150800A7C085F8FF8028469847D5F8282101231A449A
S3150800A7D0C5F828210021BEE7BDE8F8835F26B5E75E
S3150800A7E04F45FBD95F2EF9D1FF29AFD8CEB2D5F8A0
S3150800A7F00011FF2907D04B1CC5F800314C466E5492
S3150800A80085F80461ACE7D5E9423285F8FF80284629
S3150800A8109847D5F828310133C5F828310021EAE7E9
S3150800A8202DE9F043C26883B004461046FFF70CFDD5
S3150800A83000286ED11178A1F130034A2B64D8DFE8DD
S3150800A84013F0B800B800B800B800B800B800B800EF
S3150800A850B800B800B80063006300630063006300D3
S3150800A86063006300FD016300CD00430163003D0101
S3150800A870DF01630063006300630063003E02B80003
S3150800A880D101C3016300B5011901F300DB006300C0
S3150800A890630063006300B80063006300630063003D
S3150800A8A06300630098009800980098009800980044
S3150800A8B098009800980098006300980098009800FF
S3150800A8C0980063006300630098009800ED01980003
S3150800A8D098009800980098000123256B236320466A
S3150800A8E001F0CAFB25630246002343212046FFF7F1
S3150800A8F00BFB0546019038B1E3681A7822B15A1C59
S3150800A900E2601B78452B5BD00025284603B0BDE8DE
S3150800A910F083002201A9204601F0F0FD0546002833
S3150800A920F2D0E3681B78462B20461ED0FFF778FF47
S3150800A93028600028E8D003781F3B012B05D8019A28
S3150800A940C368C2602A6801922B60019D002DDBD086
S3150800A950D4E908329342D7DAE1695A1C284641F805
S3150800A9602350226203B0BDE8F08300F07FFC286024
S3150800A970DFE7B1486369613901EB810100EB8101C9
S3150800A980A069834280F28483206903EB8306571CFF
S3150800A990013300EB86050022C5E9012263612723FE
S3150800A9A000F82630E960E36A4968E7600B44E36229
S3150800A9B0ABE7204600F02AFE05460190002DA3D0FD
S3150800A9C0D4E9083293429FDAE16941F82350019DA0
S3150800A9D05A1C2846226203B0BDE8F0830132E260C1
S3150800A9E02046FFF71DFF0023024625212046FFF7D4
S3150800A9F08BFA05460190E1E70132E2602046FFF74F
S3150800AA0061FDE36801901A78492A054600F0D0826C
S3150800AA102046FFF705FF019B024621212046FFF746
S3150800AA2073FA05460190C9E72046FFF7DFFCE6689A
S3150800AA3001903378492B0546C0D1636B002B40F053
S3150800AA40DF8200283FF460AFD4E908218A42BFF6C6
S3150800AA505BAFE16941F82200013222623278493A55
S3150800AA60012A05D80136E660204601F01BFE03469A
S3150800AA702A461CE05378A3F13002092A05D95F2B30
S3150800AA8003D0413B192B00F2AE8200212046FFF786
S3150800AA9089FDE36801901A78492A05467FF435AF9F
S3150800AAA00133E360204601F0FDFD2A4603460421F2
S3150800AAB02046FFF729FA054601907FE7204600F071
S3150800AAC0D5FB0546019079E7531CE3605378002BC4
S3150800AAD03FF41AAF931CE3605378463B302B3FF69E
S3150800AAE013AF01A151F823F0EFAC000809A900083B
S3150800AAF009A9000809A9000809A9000809A9000860
S3150800AB0009A9000809A9000809A9000809A900084F
S3150800AB1009A9000809A9000809A9000809A900083F
S3150800AB20D9A8000809A9000809A9000809A9000860
S3150800AB3009A9000809A9000809A9000809A900081F
S3150800AB4009A9000809A9000809A9000809A900080F
S3150800AB5009A900088FAD000809A9000863AD000817
S3150800AB604BAE00081BAE0008EBAD000809A90008AB
S3150800AB70BBAD00087DAF000809A9000809A90008AF
S3150800AB8009A9000809A900084DAF000809A9000885
S3150800AB9035AF000809A9000809A9000805AF00088B
S3150800ABA0D9A80008D5AE00087BAE00080132E260DD
S3150800ABB02046FFF735FE0023024623212046FFF7ED
S3150800ABC0A3F905460190F9E60132E2602046FFF74F
S3150800ABD027FE0023024622212046FFF795F905465F
S3150800ABE00190EBE60132E2602046FFF719FE0023EA
S3150800ABF0024624212046FFF787F905460190DDE63F
S3150800AC000132E2602046FFF70BFE002302462621AA
S3150800AC102046FFF779F905460190CFE60132E26052
S3150800AC202046FFF74FFC0023024628212046FFF75F
S3150800AC306BF905460190C1E6C82C0308511CE16072
S3150800AC4053785F2B00F0B281303B092B00F2BD81AF
S3150800AC500B461D460133E3601A78303A092AF8D9BB
S3150800AC60D4E905208242A3EB010CBFF64DAED4F819
S3150800AC7010E002EB82000EEB80068700002001320E
S3150800AC808445C6E9010062617FF73EAEC6E9010068
S3150800AC900EF80700C6E9031C6A7819465F2A7FF48E
S3150800ACA033AE0131E1602046FFF7BAFD324603466E
S3150800ACB02A212046FFF728F9054601907EE601324B
S3150800ACC0E2602046FFF7ACFD054600283FF41CAEBF
S3150800ACD02046FFF7A5FD034600283FF415AE2A4691
S3150800ACE02B212046FFF710F90546019066E6D4E9C0
S3150800ACF005318B4280F2D081216903EB830001EB99
S3150800AD00800501330026C5E9016663612C23019598
S3150800AD1001F820309378303BDBB2092B94BF01232E
S3150800AD2033462B8203D82046FFF738F9019D204683
S3150800AD30FFF776FD019BE860DB68002B3FF4E4AD86
S3150800AD402046FFF72BF9E268137813B1531CE3602A
S3150800AD501378019DA3F17303B3FA83F35B096B823E
S3150800AD60D3E5D4E905329342BFF6CEAD2269BE4992
S3150800AD7003EB8305A8000133636102EB8505002315
S3150800AD80C5E9013313540E23C5E90313BDE5D4E918
S3150800AD9005329342BFF6B8AD2269B44903EB830581
S3150800ADA0A8000133636102EB85050023C5E9013379
S3150800ADB013540423C5E90313A7E5D4E905329342DE
S3150800ADC080F26681226903EB830102EB8105013378
S3150800ADD00020C5E901006361272302F82130E36AF0
S3150800ADE0A34AEA600433E3628FE5D4E90532934265
S3150800ADF080F24E81226903EB830102EB8105013360
S3150800AE000020C5E901006361272302F82130E36ABF
S3150800AE10984AEA600933E36277E5D4E90532934252
S3150800AE2080F23681226903EB830102EB8105013347
S3150800AE300020C5E901006361272302F82130E36A8F
S3150800AE408D4AEA600A33E3625FE5D4E90532934244
S3150800AE5080F21E81226903EB830102EB810501332F
S3150800AE600020C5E901006361272302F82130E36A5F
S3150800AE70824AEA600933E36247E593785F2B00F07C
S3150800AE80E580D4E905329342BFF63EAD226903EB6D
S3150800AE90830102EB810501330020C5E901006361E6
S3150800AEA0422302F821302046FFF778F8E860E36885
S3150800AEB01A785F2A7FF428AD0133E3602046FFF74E
S3150800AEC0AFFC2A4603462D212046FFF71DF8054606
S3150800AED0019073E5D4E90532934280F2D98022695C
S3150800AEE003EB830102EB810501330020C5E901006C
S3150800AEF06361272302F82130E36A614AEA6007336F
S3150800AF00E36202E5D4E90532934280F2C180226900
S3150800AF1003EB830102EB810501330020C5E901003B
S3150800AF206361272302F82130E36A564AEA60083348
S3150800AF30E362EAE42046FFF773FC002302464B214E
S3150800AF402046FEF7E1FF0546019037E5D4E90532CC
S3150800AF50934280F29D80226903EB830102EB81050F
S3150800AF6001330020C5E901006361272302F8213077
S3150800AF70E36A454AEA601133E362C6E4D4E9053276
S3150800AF80934280F28580226903EB830102EB8105F7
S3150800AF9001330020C5E901006361272302F8213047
S3150800AFA0E36A3A4AEA600833E362AEE4002678E6E2
S3150800AFB00133E360204601F075FB2A460346042167
S3150800AFC02046FEF7A1FF019022E50123256B2363A6
S3150800AFD0204601F051F82563064600283FF494AC54
S3150800AFE0E1680A785AE6204600F010FB054601900B
S3150800AFF000283FF489AC0378182B7FF4E1AC84E48D
S3150800B000731CE3602046D4F81490D4F82080E76ACD
S3150800B01001F048FBE3681B78492B07D0019DE660E1
S3150800B020C4F81490C4F82080E762C7E4019A002A9D
S3150800B0303FF46AACD4E908139942BFF665ACE569F2
S3150800B04045F8212001310346216230E50332012308
S3150800B050256BE2602363204601F00EF8256305465A
S3150800B06000287FF424AF4FE468730308607303086D
S3150800B0700C2F0308D02E0308F82E0308E42E030825
S3150800B080202F0308342F03085C2F0308482F0308D2
S3150800B09000230193DB68FFDE00231B70FFDE00BF81
S3150800B0A0F8B5C3681F78064677BB4FF0000E3D4DCE
S3150800B0B0452100228B1A03EBD37302EB63031801B5
S3150800B0C005EB031C2C582078B84206D094BF5A1CAE
S3150800B0D019468A42EED10020F8BD60787045F5D150
S3150800B0E0D6E905329342F6DA326903EB830102EBBD
S3150800B0F0810001330024C0E901447361322302F858
S3150800B1002130C0F80CC0F8BD5A1CC26093F801E0A3
S3150800B1101F78BEF1000F02D1762FC8D0C5E79A1C5A
S3150800B120C260762F93F801E01FD1AEF13004E3B286
S3150800B130092BBCD8FFF7C6F9D6E905318B4202467A
S3150800B140C9DA376903EB830107EB81000133002570
S3150800B150C0E9015589007361002ABCD03323C0E9D0
S3150800B16001557B54C0E90342F8BD632F9FD1BEF158
S3150800B170760F9CD1D0E90C34B3FA83F35B094363A9
S3150800B180FFF74EFB736B024633B100233521304679
S3150800B190FEF7BAFE7463F8BD34213046FEF7B4FEF6
S3150800B1A0F8E700BF702F030830B5C26883B00023E4
S3150800B1B00193137823B3044601AD11E04F2B16D043
S3150800B1C0FFF72EFB024600232E212046C2B1FEF7CA
S3150800B1D09BFE2860A0B1E268137800F110054BB118
S3150800B1E0452B204606D02E2B04D0522BE6D1537879
S3150800B1F0452BE5D1019818B1036923B103B030BDD9
S3150800B200002003B030BDC26811782729F6D1D2686C
S3150800B210117C0929F2D1E16A5268891AE162C36090
S3150800B220ECE700BF70B5C3681A784A2A05461AD0F3
S3150800B23081B12846FFF7F4FA044690B12846FFF78D
S3150800B240B3FF034668B1224628462921BDE8704067
S3150800B250FEF75ABE28460C46FFF7A6FF0346002807
S3150800B260F1D1002070BD0133C360E2E710B5044692
S3150800B270806810F480200BD1A26BB2F5006F06D857
S3150800B280511CE368A1631978462907D0A26310BD4B
S3150800B290E3681A78462A01D0002010BD5A1CE260DD
S3150800B2A05A78592A04BF0233E36001212046FFF782
S3150800B2B0B9FF01462046FEF7CFFEE3681A78452A0D
S3150800B2C004BF0133E360A36818BF00205B03DED424
S3150800B2D0A26B013ADAE700BFF8B5C3681A78A2F19B
S3150800B2E030010929044661D9A2F16101192914D846
S3150800B2F06F2A04D15A786E2A04BF0233C3602046E7
S3150800B300FFF7CEFE054610B10378322B69D0E36805
S3150800B3101978422951D02846F8BDA2F143010129DE
S3150800B32040F28B804C2A79D0552A40F083805A788F
S3150800B3306C2A00F0D580742A7CD15A1CC2605978D0
S3150800B340742940F098809A1CC2609A785F2A00F0A7
S3150800B35045816E2A6ED0FEF721FE0130E36800F1C2
S3150800B360368119785F2977D10133E360D4E905324C
S3150800B370934280F22B81226903EB830602EB860552
S3150800B38001330021C5E901116361482302F826301B
S3150800B390D4E908239A42E86080F22481E169E368E7
S3150800B3A041F82250013222621978B2E7FFF78AF88B
S3150800B3B0E368197842290546ADD1A66A0133E360E8
S3150800B3C02046FFF77FF82A4603464C212046FEF71B
S3150800B3D09BFDE368197842290546EFD0A662284600
S3150800B3E0F8BDC268E36A9168126807330B44E362E2
S3150800B3F013786C2B8BD15378692B88D19378002BD3
S3150800B40085D12046FFF75EF82A46034637212046AF
S3150800B410FEF77AFDE368054619787AE70133C360D3
S3150800B420FFF750F8054628B12046FEF79BFE002890
S3150800B4307FF46DAF00252846F8BD806A80B1017893
S3150800B44061B90169E26A0A44E262197843290A463F
S3150800B45000F08680442905D000255AE71829F0D03F
S3150800B460432A7DD059783039052936D8DFE801F0E6
S3150800B470062C2935322F134600254AE74FF0010ED0
S3150800B480D4E905219F1C8A42E76080F2A380D4F89C
S3150800B49010C002EB82010CEB810501320026C5E9DA
S3150800B4A0016689006261002800F09480C5E901669A
S3150800B4B008220CF8012085F80CE0286199783B46AB
S3150800B4C027E74FF0030EDBE74FF0020ED8E74FF001
S3150800B4D0050ED5E74FF0040ED2E71146002518E70A
S3150800B4E05A1CC26059786C29C5D10233C360FFF76C
S3150800B4F05BFEE3680646002869D019784529ABD172
S3150800B5005A1CE2605A785F2A73D06E2A92D0204677
S3150800B510FEF744FD0130E36859D419785F299BD1B9
S3150800B5200133E360D4E905218A425FDA216902EB37
S3150800B530820C01EB8C0501320027C5E901776261AF
S3150800B540462201F82C20D4E908218A42C5E903607D
S3150800B5504CDAE16941F82250013222621978D8E6BC
S3150800B5605A78492A22D0A2F1310104293FF662AF5E
S3150800B570303A0233D7B2E360D4E90532934225DA8A
S3150800B580226903EB830102EB810501330026C5E935
S3150800B590016689006361002833D00723C5E901667F
S3150800B5A05354E3682F7328611978B2E6581CE06093
S3150800B5B09A78A2F1310104291FD80333303AE3609F
S3150800B5C02046D7B2FFF72CF9A06AD5E7E3681978C1
S3150800B5D000259EE6997800253B469AE60333C36024
S3150800B5E00020C3E6E3680D46197892E61978002527
S3150800B5F08FE60233E360002094E759780025034676
S3150800B60087E6E3680546197883E600BF2DE9F04723
S3150800B610C26813784E3B84B004460C2B08D8DFE882
S3150800B62003F03107070707170713070707078500FA
S3150800B630FFF752FEE3681A78492A054600F0C980E2
S3150800B640284604B0BDE8F08704B0BDE8F04743E6F5
S3150800B6505378742B00F0CF800021FEF7A3FFE36830
S3150800B6601A78492A0546EBD10133E360204601F0F2
S3150800B67019F803462A460421204604B0BDE8F047D7
S3150800B680FEF742BC0132C26003A9012200F036FF70
S3150800B6900746002800F0E78000212046FEF7DCFC7C
S3150800B6A0E2681678804636B3DFF834934FF0000A1E
S3150800B6B0442E00F0DD80A6F13003DBB21C2B40F2ED
S3150800B6C01A81A6F16103192B00F217812046FFF7AC
S3150800B6D003FE0546BAF1000F06D001212B46524655
S3150800B6E02046FEF711FC0546532E0DD1E268AA4600
S3150800B6F01678002EDCD100253D60A1E7FFF790F80B
S3150800B7000546BAF1000FE8D1E2681678452E00F032
S3150800B710BE80002DEFD0D4E908318B42EBDAE1691F
S3150800B72041F8235001332362AA46E1E7531CC3605C
S3150800B7305378472B02D0542B40F0B780204600F0B0
S3150800B740CFF90546002D00F08E80E3681A78452A61
S3150800B75040F089805A1CE2605A78732A00F0018109
S3150800B760642A00F0A7802046FFF750FF034620B35F
S3150800B7700278462A21D0482A1FD04FF0FF362046A5
S3150800B7800193FEF7EFFC019B00286CD0721C14D0C5
S3150800B7909C46D4E905239A4280F21281216902EB7C
S3150800B7A0820001EB800301320027C3E90177626159
S3150800B7B0472201F82020C3E903C62A78032A05D1BF
S3150800B7C02A691178292904BF0021D1602A46022155
S3150800B7D052E7002847D0D4E908218A4243DAE169CA
S3150800B7E041F82200013222621A78493A012A7FF684
S3150800B7F03BAF00233EE7D0E9053102328B42C260F7
S3150800B80080F2CC80026903EB8305A900013343610A
S3150800B81002EB85050023C5E9013353546E4A032319
S3150800B820C5E903232046FFF757FD2A4603460121AB
S3150800B8302046FEF769FBE26AE3680332E2621A7899
S3150800B840492A05467FF4FCAE68B1D4E908218A4244
S3150800B85009DAE16941F82200013222621A78493A86
S3150800B860012AC6D800E70025284604B0BDE8F087B7
S3150800B870537803F0DF03542B20463FF43FAFFFF71E
S3150800B8802BFD0546BAF1000F7FF427AF3CE71523D9
S3150800B89029FA03F3D9073FD52046FFF71DFD15B151
S3150800B8A0AA46054619E705462EE7002100F09AF84C
S3150800B8B0054647E79A1CE2609A785F2A7CD06E2A8A
S3150800B8C0D1D02046FEF76AFB461CCCD4E3681A782A
S3150800B8D05F2AC8D10133E3602046FFF797FE034687
S3150800B8E000283FF455AF1A78462A3FF451AF482A44
S3150800B8F03FF44EAF43E75546CAE7552E2FD0532E91
S3150800B90009D101212046FEF74DFE0546BAF1000F82
S3150800B9107FF4E3AEEAE65546492E41D0542E51D07F
S3150800B920452E09D04D2E7FF4E6AE002D3FF4E3AE4A
S3150800B9300132E260AA46DBE63D60002D93D0B8F1FD
S3150800B940000F04D0039BC8F80C30CDF80C80E368D0
S3150800B9501A78452A87D10133039DE36070E6554678
S3150800B9609AE70233E3602046FEF7FCFB00283FF423
S3150800B9707AAFD4E905239A4222DA216902EB8203D7
S3150800B98098000132626101EB83030022C3E90122B8
S3150800B9900A5412490E22C3E903120EE7002541E7AD
S3150800B9A0002D3FF4A8AE0132E260204600F07AFE90
S3150800B9B0AA460421054691E60333E36000268BE791
S3150800B9C00023FAE62046FEF711FDAA460546BAF117
S3150800B9D0000F7FF482AE97E688730308787303082E
S3150800B9E0FF03081070B505460E46FFF70FFE002840
S3150800B9F049D00446EEB1AB68DB071AD423784D2B41
S3150800BA00A3F11C01A3F14F0235D032D8042932D94B
S3150800BA10022B0CD12369002B35D01A784D2AA2F1B6
S3150800BA201C00A2F14F012AD027D8042827D920467E
S3150800BA3070BDEB681B78002BF9D0452BF7D0214653
S3150800BA400B78042B32D026D8022B22D1096900297B
S3150800BA50F6D12846FFF7E6FBA8B116B92378022BDC
S3150800BA6038D00346224628460321BDE87040FEF733
S3150800BA704BBA012ADBD8E468C0E70129D7D8DB68C6
S3150800BA802361002BC9D10024204670BD1C3B042B22
S3150800BA9008D90021DDE74D2BA3F14F0202D0F5D9D5
S3150800BAA0012AF6D8C9680029CAD1D2E7CB685BB1A2
S3150800BAB01978082901F1FF3208D80629E9D8012A98
S3150800BAC002D81B69002BF3D10121C2E7353918BF0B
S3150800BAD00121BEE70378292B08BFC660C1E700BF6E
S3150800BAE02DE9F041C16AC36801F11402C2621A78ED
S3150800BAF0542A82B0044675D0472A28D15A1CC260F7
S3150800BB005A7822B39A1CC2605A78562A23D8402AF1
S3150800BB101DD9413A152A1AD8DFE812F01D01190075
S3150800BB20190019001900190019001900190019003F
S3150800BB301900190019001900190019001900FF0049
S3150800BB401900E9001900DE00E3680233E36000200B
S3150800BB5002B0BDE8F081722AF9D1FEF71FFA012872
S3150800BB60F5DDE3681A78002AF1D05E1CE6601B78DA
S3150800BB705F2BECD10022451E17464FF0410833785B
S3150800BB80002BE4D0242B40F09F817378532B00F0D0
S3150800BB90C0815F2B00F0BB81242BD8D11946D4E98C
S3150800BBA005039842D0DA266900EB800C06EB8C0375
S3150800BBB00130C3E90177606106F82C80E668D96030
S3150800BBC00236023DE660002A00F09F8140212046A9
S3150800BBD0FEF79AF902460028B9D0002DCFDC0023DB
S3150800BBE03F217EE05A1CC2605A78002AAFD09A1CC0
S3150800BBF0C2605B78413B352BA9D801A252F823F0E5
S3150800BC0093BD00084FBB00089FBD00084FBB000846
S3150800BC104FBB0008D3BD00084FBB000837BE00085D
S3150800BC20B1BE0008A5BE00084FBB00084FBB000800
S3150800BC304FBB00084FBB00084FBB00084FBB0008AE
S3150800BC404FBB00084FBB0008BDBE000843BE000836
S3150800BC504FBB000853BE000863BE00084FBB000870
S3150800BC604FBB00084FBB00084FBB00084FBB00087E
S3150800BC704FBB00084FBB00084FBB00084FBB00086E
S3150800BC804FBB00084FBB00086FBE00084FBB00083B
S3150800BC904FBB00084FBB00084FBB0008DFBD0008BC
S3150800BCA04FBB00084FBB00084FBB00084FBB00083E
S3150800BCB04FBB00084FBB00084FBB00084FBB00082E
S3150800BCC04FBB00084FBB00084FBB00084FBB00081E
S3150800BCD04FBB00080BBE0008FFF798FC002302467E
S3150800BCE01321204602B0BDE8F041FEF70DB99A7857
S3150800BCF0002A00F01081DA1CC2609A78DB786E2A76
S3150800BD003AD0472B02D0542B40F005812046FFF746
S3150800BD10E7FE024600234921E3E7FFF777FCD4E96B
S3150800BD2005139942024680F200810190206901EBD1
S3150800BD30810600EB86050023C5E90133013142235C
S3150800BD40616100F826302046FEF728F9019AE86076
S3150800BD502B461621C5E79B78472B01D0542B06D1D5
S3150800BD602046FFF7BDFE024600231721B9E700214A
S3150800BD70FFF738FE0246F7E7472B00F0E280542B20
S3150800BD8000F0DF800021FFF72DFE024600234A213E
S3150800BD90A7E700F05DFC002302463021A1E7FEF785
S3150800BDA03FFD05462046FEF7F9F80028FFF6CFAE18
S3150800BDB0E3681A785F2A7FF4CAAE0133E360204647
S3150800BDC0FEF72EFDE16A0531E16202462B460B219C
S3150800BDD087E7FEF725FD002302460E2181E7682145
S3150800BDE0FEF716F900283FF4B2AEE3681B78472B36
S3150800BDF000F09D80542B00F09A8000212046FFF722
S3150800BE00F1FD024600230F216BE77621FEF700F9C4
S3150800BE1000283FF49CAEE3681B78472B00F08C8023
S3150800BE20542B00F0898000212046FFF7DBFD0246EF
S3150800BE300023102155E7FFF7E9FB002302461421EA
S3150800BE404FE70A31C162FEF7EBFC002302460A21DE
S3150800BE5047E70F31C162FEF7E3FC002302460921DA
S3150800BE603FE7FFF7D3FB00230246152139E70021F8
S3150800BE70FEF7CEF800283FF46AAE00212046FEF70A
S3150800BE80C7F800283FF463AEE3681B78472B5DD0FC
S3150800BE90542B5BD000212046FFF7A4FD0246002361
S3150800BEA011211EE7FEF7BCFC00230246122118E703
S3150800BEB0FEF7B6FC002302460C2112E7FEF7B0FC9B
S3150800BEC0002302460D210CE7B446002104E01CF8C5
S3150800BED0013F23B1242B02D00131A942F7DBD4E973
S3150800BEE0053083421DDA206903EB830C0133636155
S3150800BEF000EB8C03C3E9017700F82C70C3E90361F2
S3150800BF00E6680E446D1AE6605DE61A4665E62E2179
S3150800BF1045E62F2143E600212046FFF763FD02464A
S3150800BF20F8E6E3680B44E36011E6002510E72046CF
S3150800BF30FFF7D6FD024665E72046FFF7D1FD024624
S3150800BF4076E72046FFF7CCFD02461FE72046FFF7B7
S3150800BF50C7FD0246A3E700BFF8B5C26813784C2BA5
S3150800BF6032D1531CC36051785F29044651D05A29EF
S3150800BF7013D15A1CE2605B78472B43D0542B41D02F
S3150800BF8000212046FFF72EFDE3681A780646452A63
S3150800BF901AD10133E3603046F8BDFEF741FC064688
S3150800BFA090B10378272B12D0E26815786E2D23D02E
S3150800BFB03D21452D59D0134603E0E3601D78452DF4
S3150800BFC02FD00133002DF8D100263046F8BDC368BE
S3150800BFD01A7C1AB1E26A5968521AE2622549186847
S3150800BFE004F0A2F80028DFD1E2681578452D3ED086
S3150800BFF06E2D01D03D21DEE7531CE36055783E21C6
S3150800C0001A46D6E72046FFF76BFDE36806461A7818
S3150800C010BDE7931CC36092785A2A18BF0026B6D18A
S3150800C020A7E79D1AD4E9050398421CDAD4F810E06C
S3150800C03000EB80070EEB87034FEA870C00270130D9
S3150800C040BD42C3E9017760610DDDC3E901770EF8EA
S3150800C0500C70C3E9032532462046FDF755FFE36811
S3150800C06006461A7893E70023F5E70025DAE7013252
S3150800C070E260AAE78C730308C26813784C2B00F0B9
S3150800C0809C80542B00F09A80F0B5732B83B004463D
S3150800C09065D0662B33D0A3F1300109290ED8204686
S3150800C0A0FFF71AF90546002800F08380E3681A7836
S3150800C0B0492A00F08580284603B0F0BD6F2B5BD077
S3150800C0C0692B40F08B8053786C2B00F0A5802046B6
S3150800C0D0FEF7E6FF054600286BD00378322B51D0D1
S3150800C0E0342B00F08E8164D8332B62D1C368032BBE
S3150800C0F05FD8DFE813F0D900DD005E005E005378F4
S3150800C100702BE4D1931CC3609378542B00F02181E3
S3150800C1105F2B00F0A9806E2B4BD0FDF73FFF411C2B
S3150800C12047D4E3681A785F2A43D16FF00042013397
S3150800C1309142E3603DD00230D4E90532934238DAC1
S3150800C140226903EB830102EB810501330026C5E969
S3150800C15001666361062302F82130E860ABE753788D
S3150800C160722B49D0702BB2D10232C260FFF784FF1E
S3150800C170002302464B212BE053786E2BA7D10232BF
S3150800C180C2608CE7C168E36A8A680E68023A13449B
S3150800C190E3623378732B50D17278742A4DD1B27812
S3150800C1A0002A4AD12046FEF73BFB2A46034637219A
S3150800C1B00EE00025284603B0F0BDCDE6FEF716B919
S3150800C1C00133E360204600F06DFA2A46034604214F
S3150800C1D0204603B0BDE8F040FDF796BE742B7FF409
S3150800C1E076AF53786C2B7FF472AF0232E260FEF7BB
S3150800C1F017FBE268054612E00232C260FEF710FB42
S3150800C20005462046FFF768F8E368197849291BD0E0
S3150800C21003462A460121DBE70232E260002511784F
S3150800C2200029C6D05378002BC3D04521204600F0FC
S3150800C2302BF92A4603463121CAE7CF68032FB8D817
S3150800C240DFE807F03216613B01330190E3602046D0
S3150800C25000F028FA019A034604212046FDF754FE09
S3150800C2602A4603460121B3E70332C260012063E789
S3150800C2703278702A76D06D2A74D00027732B6CD149
S3150800C2807378502B69D1B378002B66D1204600F01D
S3150800C29009FA03462FB11A4639212046FDF734FE1E
S3150800C2A003462A46372193E700232A4636218FE795
S3150800C2B02046FFF7E1FE0346F3E7712B5ED173785C
S3150800C2C0752B5BD1B378002B58D12046FFF7D4FEE7
S3150800C2D006462046FFF7D0FE07462046FFF7CCFE67
S3150800C2E0034600283FF465AF3A463C212046FDF751
S3150800C2F00BFE324603463B212046FDF705FE2A463D
S3150800C30003463A2164E7EB681B685A78632A00F00B
S3150800C3108C803378662B00F096802046FFF7ACFEBB
S3150800C32007463378632B50D172786C2A4DD1B27890
S3150800C330002A4AD14521204600F0A6F806463921AA
S3150800C34033463A462046FDF7DFFD2A46034638219E
S3150800C3503EE70332C2600020EEE62046FFF78CFE79
S3150800C360034697E77178914287D1E26811785F2989
S3150800C37084D10132E260337800277FE73378662B71
S3150800C3806DD06E2B7FF415AF7378772B02D0612BA7
S3150800C3907FF40FAF5F21204600F076F80646204668
S3150800C3A0FEF73EFAE3681A78452A074667D0702AE8
S3150800C3B059D0692A7FF4FDAE5B786C2B7FF4F9AE11
S3150800C3C02046FFF759FE03468EE7642B26D172787E
S3150800C3D0742A23D1B2780ABB2046FEF77DFFE368AC
S3150800C3E01A78492A0646AAD10133E360204600F0A6
S3150800C3F059F93246034604212046FDF785FD0646CF
S3150800C4009DE7E3681A785F2A7FF452AF0133E36049
S3150800C4104521204600F038F8034642E7702B17D02E
S3150800C4202046FFF729FE064689E71B78A3F1630233
S3150800C430012A03D9723B012B3FF66BAF2046FEF764
S3150800C440EFF907466DE72046FEF72AFE074668E736
S3150800C4507378742BE4D1B378002BBDD0E0E720467F
S3150800C460FEF71EFE34E75A78692A7FF4A2AE023335
S3150800C470E3604521204600F007F8034634E7013318
S3150800C480E360002330E700BF2DE9F041C2680E469D
S3150800C490117882B00023B1420446019324D001AD3D
S3150800C4A0012709E0FDF730FD286000F1100588B185
S3150800C4B0E3681A78B24211D0D4F830802763204650
S3150800C4C0FFF7DAFD024600232E212046C4F8308005
S3150800C4D0002AE7D1002002B0BDE8F08101980133B7
S3150800C4E0E36002B0BDE8F0810132C2602E211A462F
S3150800C4F002B0BDE8F041FDF707BD00BF2DE9F04FDA
S3150800C5000F46C168B2F1000983B00A78044615BF20
S3150800C5104FF01E0A4FF01B0A4FF01D084FF01A087D
S3150800C52014BF1C2619263D464FF0010B1BE0562A60
S3150800C53033D04B2A37D04B7853B38B1CE3604978FA
S3150800C540782950D06F2934D1E36A0933E3624F2141
S3150800C550002300222046FDF7D7FC2860C0B1E16819
S3150800C5600A7800F10C050846FDF76EFE002840D053
S3150800C5704B1C722AE360DAD1E36A0933E362314677
S3150800C580002300222046FDF7BFFC28600028E6D1DC
S3150800C5900025284603B0BDE8F08FE36A0933E36255
S3150800C5A041460023D5E7E36A0633E3625146002392
S3150800C5B0CFE74F2939D1E36A01910933E36220466F
S3150800C5C0236BC4F830B00093FFF756FD009B236336
S3150800C5D0019903460028DBD0E26810784528D7D1B0
S3150800C5E00132E260B5E7E36A1133E3624D210023C5
S3150800C5F0AFE7B9F1000FCCD1462ACAD1BD42C8D09F
S3150800C6001D201E211C2204E0192B0CD00C37BD421C
S3150800C610BFD03F683B781A2B03D01B2BF4D1397057
S3150800C620F4E73870F2E73A70F0E77729B0D1E36AB1
S3150800C6300633E3622046FEF7B7FD03460028A7D077
S3150800C640E26811784529A3D10132E260502180E7DA
S3150800C65038B5C26813784C2B1FD0044607D8493B17
S3150800C660012B15D80132BDE83840C2601AE0582BB4
S3150800C6700ED101320123056BC2600363FFF7FCFC90
S3150800C680E36825631A78452A0AD10133E36038BD81
S3150800C6902046BDE83840FEF7C3B8BDE838405BE43D
S3150800C6A0002038BD70B5C368866A1A78452A82B0F4
S3150800C6B004461FD00023019301AD09E0FDF724FCD1
S3150800C6C0286000F1100560B1E3681A78452A0BD096
S3150800C6D02046FFF7BDFF024600232F212046002AE9
S3150800C6E0ECD1002002B070BD0198A6620133E36068
S3150800C6F002B070BD5A1C0023C2602F211A4602B030
S3150800C700BDE87040FDF700BC2DE9F04F044693B034
S3150800C710002A5CD0D0F81851002D5BD11378164644
S3150800C720502B54D8DFE813F0BC0912011201550545
S3150800C7306C084008E7078C008000CD08A608F408B6
S3150800C740E70595066E0635060E065A0233020C02F2
S3150800C750E50142091B0969095B078E008E008E00F8
S3150800C7605900590059005900590059005900BA0092
S3150800C770BA0059005900900978001A08FF06A40063
S3150800C780BC06A400DD00DD00B3048E0453042C04AB
S3150800C79053000504FD03CF0386075300B305530072
S3150800C7A053003D013D01E004DA04AD017D012E058B
S3150800C7B00705A803810353005A0333030C03AC028D
S3150800C7C081025900BA0159005900C4F814310123ED
S3150800C7D0C4F8183113B0BDE8F08F0022D4F814312C
S3150800C7E00293D4F81031059302ABC4F81431002330
S3150800C7F003960493002A72D01121204602F018F8F5
S3150800C800049B002B01F02B83029BC4F81431002DE6
S3150800C810E0D0C4F81071DDE7F2681121204613B0A4
S3150800C820BDE8F04F02F004B8D0F80011FF2901F076
S3150800C83090854A1C7E23C4F80021635484F8043189
S3150800C8403269EAE7D0F814E1BEF1000F3CD072462F
S3150800C850916849B950680078A0F1190CBCF1020F2B
S3150800C86001F229858342D7D01268002AF0D12BE03D
S3150800C870D0E9443102AAC0F814210022CDE90216F3
S3150800C880049211213269059301F0D2FF049B002B13
S3150800C89001F0F384029BC4F814319BE7D0F82051C9
S3150800C8A0F0680378002D41F05483052B01F0FE85CE
S3150800C8B0232B01F02B8332789A4201F02783242B0D
S3150800C8C001F04386D4F814E1CDF808E002ABC4F8C9
S3150800C8D014310023CDE90363D4F810310593F268C7
S3150800C8E08AE7F26812B1112101F0A2FF3369002B21
S3150800C8F03FF470AFD4F80051FD2D01F2DF84DFF864
S3150800C900B0832C2708F1010A4FF0000929460BE0ED
S3150800C9100B460131D045C4F80011E75484F8047178
S3150800C92001F0A48218F8017FFF29F1D1D4F8083163
S3150800C930D4F80C2184F8FF9020469847D4F828317B
S3150800C9400133C4F8283101210023E3E7D04DF2680A
S3150800C950112101F06DFF05F10108D4F800113A27FD
S3150800C9604FF000090BE00B460131A845C4F8001149
S3150800C970E75484F8047101F0E78015F8017FFF2970
S3150800C980F1D1D4F80831D4F80C2184F8FF90204668
S3150800C9909847D4F828310133C4F8283101210023F7
S3150800C9A0E3E7F2681178272941F0A483D1680D7C62
S3150800C9B0062D01F2B082002D41F05685D4F80011FB
S3150800C9C0FF2901F019854B1CC4F80031282363544C
S3150800C9D02046112184F8043101F02AFFD4F8001109
S3150800C9E0FF2901F0F9844B1CC4F80031292363544C
S3150800C9F084F8043133783E2B01F0E884082D7FF45F
S3150800CA001FAF5B212046FDF737FC1121326920460E
S3150800CA1001F00EFF5D21204613B0BDE8F04FFDF78B
S3150800CA202BBCF2689B4902A820F0BEFB02A803F0C3
S3150800CA30E7FC00283FF4CEAE02ADD4F800112F185B
S3150800CA404FF0000809E00B460131AF42C4F8001167
S3150800CA50E65484F804613FF4BDAEFF2915F8016B6E
S3150800CA60F1D1D4F80831D4F80C2184F8FF80204697
S3150800CA709847D4F828310133C4F828310121002316
S3150800CA80E3E7D0F80011357BFF2901F028844B1C19
S3150800CA90C4F80031655484F804519BE67E4FF26869
S3150800CAA0112101F0C5FE07F10709D4F80011202568
S3150800CAB04FF000080BE00B460131B945C4F80011E8
S3150800CAC0E55484F8045101F0258017F8015FFF2921
S3150800CAD0F1D1D4F80831D4F80C2184F8FF80204627
S3150800CAE09847D4F828310133C4F8283101210023A6
S3150800CAF0E3E76A4FD0F8001107F1150954254FF0FE
S3150800CB0000080BE00B4601314F45C4F80011E55407
S3150800CB1084F804513FF480AE17F8015FFF29F1D17C
S3150800CB20D4F80831D4F80C2184F8FF8020469847B9
S3150800CB30D4F828310133C4F8283101210023E3E76A
S3150800CB40574FD0F8001107F1120967254FF0000872
S3150800CB500BE00B4601314F45C4F80011E55484F843
S3150800CB6004513FF459AE17F8015FFF29F1D1D4F803
S3150800CB700831D4F80C2184F8FF8020469847D4F869
S3150800CB8028310133C4F8283101210023E3E7454F52
S3150800CB90D0F8001107F10E096A254FF000080BE0DE
S3150800CBA00B460131B945C4F80011E55484F804511F
S3150800CBB03FF432AE17F8015FFF29F1D1D4F80831F6
S3150800CBC0D4F80C2184F8FF8020469847D4F82831F9
S3150800CBD00133C4F8283101210023E3E7324FD0F8A6
S3150800CBE0001107F1190963254FF000080BE00B4601
S3150800CBF001314F45C4F80011E55484F804513FF457
S3150800CC000BAE17F8015FFF29F1D1D4F80831D4F833
S3150800CC100C2184F8FF8020469847D4F82831013340
S3150800CC20C4F8283101210023E3E7204FF2681121D7
S3150800CC3001F0FEFD07F10409D4F800115B254FF059
S3150800CC4000080BE00B460131B945C4F80011E5545C
S3150800CC5084F8045100F05E8717F8015FFF29F1D1C7
S3150800CC60D4F80831D4F80C2184F8FF802046984778
S3150800CC70D4F828310133C4F8283101210023E3E729
S3150800CC80F168FDF737FB4FF00008A0B901F0DABCF0
S3150800CC90A87303083873030824760308B4740308D2
S3150800CCA0A07403089074030874740308A073030837
S3150800CCB048750308904603782F2B08F1010241F0C6
S3150800CCC01781C368002B01F0138100690028F1D190
S3150800CCD0C246D6F80C90904603E001354545BFF6A6
S3150800CCE079ADC4F824514A461121204601F0A0FD29
S3150800CCF0AA45F2DDCB4FD4F8001107F1010B2C261B
S3150800CD000AE00B460131BB45C4F80011E65484F825
S3150800CD100461E2D017F8016FFF29F2D14FF0000243
S3150800CD20D4F8083184F8FF202046D4F80C21984717
S3150800CD30D4F828310133C4F8283101210023E2E769
S3150800CD40B94FD0F8001107F119096E254FF0000800
S3150800CD500BE00B460131B945C4F80011E55484F8D7
S3150800CD6004513FF459AD17F8015FFF29F1D1D4F802
S3150800CD700831D4F80C2184F8FF8020469847D4F867
S3150800CD8028310133C4F8283101210023E3E7A74FEE
S3150800CD90D0F8001107F1150974254FF000080BE0CB
S3150800CDA00B460131B945C4F80011E55484F804511D
S3150800CDB03FF432AD17F8015FFF29F1D1D4F80831F5
S3150800CDC0D4F80C2184F8FF8020469847D4F82831F7
S3150800CDD00133C4F8283101210023E3E7944FD0F842
S3150800CDE0001107F10D097B254FF000080BE00B46F3
S3150800CDF001314F45C4F80011E55484F8045100F098
S3150800CE00388717F8015FFF29F1D1D4F80831D4F82B
S3150800CE100C2184F8FF8020469847D4F8283101333E
S3150800CE20C4F8283101210023E3E7824FD0F8001126
S3150800CE3007F107097B254FF000080BE00B46013187
S3150800CE40B945C4F80011E55484F8045100F0548734
S3150800CE5017F8015FFF29F1D1D4F80831D4F80C216D
S3150800CE6084F8FF8020469847D4F828310133C4F85F
S3150800CE70283101210023E3E76F4FD0F8001107F1AD
S3150800CE801B0967254FF000080BE00B460131B94531
S3150800CE90C4F80011E55484F804513FF4BDAC17F802
S3150800CEA0015FFF29F1D1D4F80831D4F80C2184F8B0
S3150800CEB0FF8020469847D4F828310133C4F8283132
S3150800CEC001210023E3E7D6E903753B78322B01F00D
S3150800CED02781342B41F0A084D0F80011FF2901F0F6
S3150800CEE02B844B1CC4F800312823635484F804317E
S3150800CEF01121FA68204601F09BFCD4F80011FF299D
S3150800CF0001F0098429234A1CC4F80021635484F8D3
S3150800CF1004312A461121204613B0BDE8F04F02F02D
S3150800CF2059BDF2681121204613B0BDE8F04F02F052
S3150800CF3069BB424FD0F8001107F108096F254FF079
S3150800CF4000080BE00B4601314F45C4F80011E554C3
S3150800CF5084F8045100F0058717F8015FFF29F1D11D
S3150800CF60D4F80831D4F80C2184F8FF802046984775
S3150800CF70D4F828310133C4F8283101210023E3E726
S3150800CF802E4FD0F8001107F108096F254FF0000859
S3150800CF900BE00B4601314F45C4F80011E55484F8FF
S3150800CFA004513FF44DAC17F8015FFF29F1D1D4F8CD
S3150800CFB00831D4F80C2184F8FF8020469847D4F825
S3150800CFC028310133C4F8283101210023E3E7F76843
S3150800CFD01B4ED7F80880D0F8001106F1070A6F250E
S3150800CFE04FF000090BE00B460131B245C4F80011B9
S3150800CFF0E55484F8045100F0EB8616F8015FFF2922
S3150800D000F1D1D4F80831D4F80C2184F8FF902046E1
S3150800D0109847D4F828310133C4F828310121002370
S3150800D020E3E700BF48750308147503081875030875
S3150800D0301476030804760308E4750308587503088C
S3150800D0404C750308D6E9032512B1112101F0F0FB4E
S3150800D050D4F80011FF2901F062814A1C7B23C4F829
S3150800D0600021204663542A46112184F8043101F030
S3150800D070DFFBD4F80011FF2900F02E864A1C7D2319
S3150800D080C4F80021635484F80431FFF7A3BBC54FE5
S3150800D090D0F8001107F11D0974254FF000080BE0C0
S3150800D0A00B460131B945C4F80011E55484F804511A
S3150800D0B03FF4B2AB17F8015FFF29F1D1D4F8083174
S3150800D0C0D4F80C2184F8FF8020469847D4F82831F4
S3150800D0D00133C4F8283101210023E3E7F26811215E
S3150800D0E001F0A6FBFFF7ACBBAF4FD0F8001107F174
S3150800D0F00D096A254FF000080BE00B460131B945CA
S3150800D100C4F80011E55484F804513FF485AB17F8C8
S3150800D110015FFF29F1D1D4F80831D4F80C2184F83D
S3150800D120FF8020469847D4F828310133C4F82831BF
S3150800D13001210023E3E79D4FD0F8001107F11C09F0
S3150800D14067254FF000080BE00B460131B945C4F8D6
S3150800D1500011E55484F804513FF45EAB17F8015FFB
S3150800D160FF29F1D1D4F80831D4F80C2184F8FF80CE
S3150800D17020469847D4F828310133C4F828310121CC
S3150800D1800023E3E78A4FD0F8001107F1090964255F
S3150800D1904FF000080BE00B460131B945C4F8001101
S3150800D1A0E55484F8045100F0478617F8015FFF2913
S3150800D1B0F1D1D4F80831D4F80C2184F8FF80204640
S3150800D1C09847D4F828310133C4F8283101210023BF
S3150800D1D0E3E7F768D0F814910022C0F81421002F6D
S3150800D1E03FF4F5AA0DF10808D0F810C143461146D8
S3150800D1F09646C3E90027C3E902EC3A784D2A9A46CF
S3150800D200A2F11C0BA2F14F0001F1010500F06386A3
S3150800D21000F29384BBF1040F40F25D86022AC4F83B
S3150800D220143114D13F693A78472A01F0498208EB4C
S3150800D23001114FF0000A4D2AA2F14F03A2F11C007A
S3150800D24001F0018000F2FC87042840F2FC87042ADA
S3150800D25004BFCDE900C7C4F810D1326911212046B0
S3150800D26001F0E6FA3B78042B02D1009BC4F8103192
S3150800D27008EB0515202755F8086C002E00F01886CF
S3150800D280103D4545F7D1C4F81491FFF7A3BA3369A1
S3150800D2901A783B2A7FF49BAA1B691B783C2B7FF4E0
S3150800D2A096AA3246112102F003FC00287FF492AABE
S3150800D2B0D6E90383D3E90363D8F80C203D491068FF
S3150800D2C0D3E9037502F030FF002841F000823246A8
S3150800D2D02046112102F07EFB42462046112102F02B
S3150800D2E091F920463A46112102F074FB324920464C
S3150800D2F0FDF748F80DE6314FD0F8001107F10C0993
S3150800D30074254FF000080BE00B460131B945C4F807
S3150800D3100011E55484F804513FF47EAA17F8015F1A
S3150800D320FF29F1D1D4F80831D4F80C2184F8FF800C
S3150800D33020469847D4F828310133C4F8283101210A
S3150800D3400023E3E71E4FD0F8001107F110097625F0
S3150800D3504FF000080BE00B460131B945C4F800113F
S3150800D360E55484F804513FF457AA17F8015FFF29DA
S3150800D370F1D1D4F80831D4F80C2184F8FF8020467E
S3150800D3809847D4F828310133C4F8283101210023FD
S3150800D390E3E70C4FD0F8001107F114096E254FF09A
S3150800D3A000081DE0C873030894750308C4750308CC
S3150800D3B0A4750308687503086C75030824740308C4
S3150800D3C0607403085C7403080B4601314F45C4F8C2
S3150800D3D00011E55484F804513FF41EAA17F8015FBA
S3150800D3E0FF29F1D1D4F80831D4F80C2184F8FF804C
S3150800D3F020469847D4F828310133C4F8283101214A
S3150800D4000023E3E7C14FD0F8001107F10F0974258F
S3150800D4104FF000080BE00B460131B945C4F800117E
S3150800D420E55484F804513FF4F7A917F8015FFF297A
S3150800D430F1D1D4F80831D4F80C2184F8FF802046BD
S3150800D4409847D4F828310133C4F82831012100233C
S3150800D450E3E7AF4FD0F8001107F1110974254FF033
S3150800D46000080BE00B460131B945C4F80011E55434
S3150800D47084F804513FF4D0A917F8015FFF29F1D1C8
S3150800D480D4F80831D4F80C2184F8FF802046984750
S3150800D490D4F828310133C4F8283101210023E3E701
S3150800D4A0B6F91230002B40F0EF86F268994BD16836
S3150800D4B0994200F022861121204601F0B9F9D4F8E4
S3150800D4C00031FF2B01F09E802022591CC4F8001160
S3150800D4D0E25484F80421B6F91080B8F1000F40F040
S3150800D4E0E5858D4E5F25771D0BE00B460131B7426A
S3150800D4F0C4F80011E55484F804513FF46BA916F8F2
S3150800D500015FFF29F1D1D4F80831D4F80C2184F849
